:020000040800F2
:10000000C00A002001010008D32900088126000849
:10001000D1290008F5070008212F00080000000082
:10002000000000000000000000000000FF2A00089F
:10003000A909000800000000392A0008012B000867
:100040001B0100081B0100081B0100081B01000820
:100050001B0100081B0100081B0100081B01000810
:100060001B0100081B0100081B0100081B01000800
:100070001B0100081B0100081B0100081B010008F0
:100080001B0100081B0100081B0100081B010008E0
:100090001B0100081B0100081B010008AB09000838
:1000A0001B0100081B0100081B0100081B010008C0
:1000B000652B0008712B00081B0100081B010008BC
:1000C0001B0100081B0100081B0100081B010008A0
:1000D0001B010008652E0008992E0008DD2E00087F
:1000E0001B0100081B0100081B010008DFF80CD0F1
:1000F00000F004FB004800471D300008C00A002043
:100100000648804706480047FEE7FEE7FEE7FEE7B1
:10011000FEE7FEE7FEE7FEE7FEE7FEE7612B0008ED
:10012000ED000008202A04DB203A21FA02F0002129
:10013000704721FA02F3D040C2F1200291400843F7
:1001400019467047D2B201E000F8012B491EFBD2DC
:1001500070470022F6E710B513460A4604461946D2
:10016000FFF7F0FF204610BD80EA010210B502F053
:100170000043400022D04A001FD0010E01EB126163
:10018000C0F35600C2F3560240F4000042F40002ED
:10019000A0FB022000047F39140400D0401C50EA68
:1001A000124001D44000491EC2B20C0604EBD0102C
:1001B000401C4008802A02D003E0002010BD20F03F
:1001C0000100002900DA0020184310BD2DE9FE4F80
:1001D000804681EA0300C00F0C46009021F00041E8
:1001E00023F00045B8EB0200A94105D24046214664
:1001F00090461C460B46024623F00040104347D071
:10020000270DC7F30A00C3F30A510290401A019068
:1002100040286BDAC3F3130040F4801B0098924629
:1002200020B10023D2EB030A63EB0B0B0198594674
:10023000C0F14002504600F0ABF906460D4650466C
:100240005946019A00F0B3F910EB0800614100240F
:1002500087EA115284EAE7731A4340D0009A62B3E6
:10026000019A012A4FEA075215DC001B61EB0201DB
:100270004FF0004202EA0752CDE90042001C41F56E
:10028000801132462B4600F0EAF903B0BDE8F08F4A
:1002900040462146F9E7001B61EB0201001C41F5D5
:1002A000801300185B412018A2F5001747EB0301EB
:1002B00040EAD570B6196D4111E06D084FEA360677
:1002C00045EAC0754FEA0752001B61EB0201001CB2
:1002D00041F5801149084FEA30000019514132467A
:1002E0002B4603B0BDE8F04F00F0AAB900980122F8
:1002F00040000023D0EB020263EBE073009821463C
:100300004FEAE074B8EB000061EB0401E9E783F029
:1003100000435BE781F0004158E72DE9FE4F81EA99
:10032000030404F0004421F0004100944FF0000B5E
:1003300023F0004350EA01045ED052EA03045BD08C
:10034000C3F30A54C1F30A552C44A4F2F3340194C4
:10035000A0FB0254C1F3130141F48011C3F3130352
:1003600043F4801301FB024400FB034E840A970A06
:1003700044EA815447EA8357A4FB076802958D0A33
:1003800005FB07854FEA932C04FB0C542705029DBF
:100390004FEA065847EA1637B5EB08056EEB070C2F
:1003A000870E920E47EA811742EA8312A7FB0201E9
:1003B000B6EB0B0164EB00042B0D43EA0C335E1823
:1003C00044EB1C50DA465146E7FB0201C5F3130427
:1003D0004FEA0B3343EA14534FEA0432019C43EAD9
:1003E0000603A4F10C040294009CCDE900B400F0D3
:1003F00036F903B0BDE8F08F00200146F9E72DE99A
:10040000F04D81EA030404F0004B21F0004514464E
:100410004FF0000A23F0004150EA050220D054EAD0
:1004200001021DD0C5F30A570246C5F31303C1F3F9
:100430001300C1F30A5640F4801543F48013A7EB70
:100440000608101BD64608F2FD3873EB050002D3F0
:1004500008F1010801E092185B41B8F1000F03DADE
:1004600000200146BDE8F08D00204FF480110646C3
:1004700084460EE0171B73EB050705D3121B63EBD5
:10048000050306434CEA010C49084FEA3000921874
:100490005B4150EA0107EDD152EA030012D082EA33
:1004A000040083EA0501084305D0101BAB4106D2C6
:1004B0000122002306E000224FF0004302E06FF02B
:1004C000010253101AEB06004CEB085110EB0A0026
:1004D00041EB0B01BDE8F04D00F0B2B80EB540F2B3
:1004E000334102910021CDE900110A460B4600F08C
:1004F000B6F803B000BD20F00040C10DC0F31600F7
:1005000040F400007F2901DA00207047962903DCBF
:10051000C1F19601C840704796398840704700F095
:10052000004230F000400AD0C10D01F56071C0F307
:10053000160042EA0151C2084007114370470020EB
:100540000146704701F0004330B421F0004150EA09
:10055000010206D00A0DA2F56072C1F31301002A50
:1005600002DC30BC00207047440F44EAC104C100E3
:10057000E01830BC00EBC25000F02BB8002801DBC3
:10058000C0F10040002901DBC1F100418842704701
:10059000202A04DB203A00FA02F100207047914043
:1005A000C2F1200320FA03F3194390407047202A38
:1005B00006DBCB17203A41FA02F043EAE07306E08B
:1005C00041FA02F3D040C2F120029140084319469B
:1005D00070470029A8BF7047401C490008BF20F0A1
:1005E0000100704710B4B0FA80FC00FA0CF050EA39
:1005F000010404BF10BC704749B1CCF1200421FABA
:1006000004F411FA0CF118BF012121430843A3EBB4
:100610000C01CB1D4FEA00614FEA102042BF0020C1
:1006200010BC704700EBC35010440029A4BF10BC9D
:100630007047401C490008BF20F0010010BC704703
:1006400010B5141E73F1000408DA401C41F10001DA
:1006500092185B411A4301D120F0010010BD2DE931
:10066000F04D92469B4611B1B1FA81F202E0B0FA28
:1006700080F220329046FFF78BFF04460F4640EA97
:100680000A0041EA0B0153465A46084313D011466B
:1006900053EA010019D0C8F140025046FFF742FD6D
:1006A00005460E46504659464246FFF771FF08433D
:1006B00005D0012004E020463946BDE8F08D002039
:1006C000054346EAE0762C4337430A986305E40A7B
:1006D000A0EB08000022FD0A44EA47540A3002D584
:1006E00000200146E9E7010510196941DDE90845E7
:1006F00000196941BDE8F04DA2E70000064C074D26
:1007000006E0E06840F0010394E8070098471034E1
:10071000AC42F6D3FFF7EEFC203100084031000870
:1007200070B5044600688168C943C90717D181685C
:1007300021F00101816000F0A5FE05460AE000BF3E
:1007400000F0A0FE401B022804D920688068C04346
:10075000C00706D020688068C043C007F0D00020E2
:1007600070BDA06A40F01000A062E06A40F0010095
:10077000E062012070BD0000F8B500260446009636
:1007800000688168C943C9072DD0816841F0010123
:100790008160164816490068B0FBF1F000E0401E89
:1007A00000900028FBD100F06DFE054616E000BF6A
:1007B00000F068FE401B022810D920688068C04302
:1007C000C0070BD0A06A40F01000A062E06A40F0C1
:1007D0000100E06284F824600120F8BD2068806890
:1007E000C043C007E4D10020F8BD00002400002071
:1007F00040420F00FEE7000000B58FB01E226946A0
:10080000024802F06FF90FB000BD000000FC0008C4
:1008100070B516480024016821F0F00101600168FC
:1008200041F080010160124D04E0641CE4B201203B
:1008300002F0DFFBD5F8040110B1642CF5D30DE014
:10084000642C0BD2002404E0641CE4B2012002F00A
:10085000D0FBD5F8040118B1642C04D3012070BD7D
:10086000642CF1D3FAE7002070BD000000080140BD
:10087000000021420D4800B5816985B041F00401B6
:1008800081618069694600F00400049002200090B4
:1008900001200190029003200390054800F0FCFC29
:1008A00000F064F8FFF7B4FF05B000BD001002408F
:1008B0000008014070B50024104D04E0641CE4B24F
:1008C000012002F096FBD5F8040108B1642CF5D3A1
:1008D000002404E0641CE4B2012002F08AFBD5F895
:1008E000040108B9642CF5D3282002F082FBD5F866
:1008F0000401002800D0012070BD0000000021424A
:1009000070B5002004464006050EFFF7D3FF641CB7
:100910002843E4B2082CF6D370BD2DE9FC410D4606
:10092000064600F023F8FFF773FF10B10120BDE881
:10093000FC8100246F46FFF7E3FF3855641CE4B2E6
:10094000052CF8D39DF800109DF801009DF80330A8
:100950000A189DF8020003441A449DF804309A4294
:1009600001D1297030700020E1E700000C4810B57B
:10097000016821F0F0010160016841F0300101607F
:10098000084C0020C4F88401142004F5C27402F05D
:1009900025FB01202060BDE810401E2002F029BB8D
:1009A00000080140000021427047402000F068BC70
:1009B000704700000149881EFFF7AFBF11050020F6
:1009C00010B51421002000F085F9FFF787FD4FF0E6
:1009D00066320E4BFFF7A1FCFFF7B4FDFFF79FFD5A
:1009E0004FF099320A4BFFF70AFD0022094BFFF73F
:1009F00094FC0022084BFFF7E9FBFFF7A3FD074932
:100A00000860BDE8104001F0E7BF000066664A3F9D
:100A10009999F93F0000594000003E400000002035
:100A200000B58BB028216846FFF793FB01218DF8B4
:100A3000001003208DF8010000208DF804008DF8CF
:100A400002008DF803008DF8051084208DF8060053
:100A50000A208DF807004FF47A730822694603488C
:100A600001F0B4FD01F0EAFF0BB000BDB0010020C1
:100A700010B5104C2078401C2070012000F0ECFBD9
:100A800020780428F6D300F05DF80B48D0F89011D8
:100A900069B10021C0F890114FF480710748FFF749
:100AA00058FB0749002008700649087010BD012155
:100AB000F0E700001100002000802142F402002035
:100AC0000F0000201000002010B50B4C2078401CB7
:100AD0002070012000F0C0FB20780428F6D300F03D
:100AE000B9F84FF480710548FFF733FB0449002043
:100AF00008700449087010BD0E000020F4010020A9
:100B00000C0000200D00002010B50A4C2078401C7D
:100B10002070012000F0A0FB20780428F6D34FF4C9
:100B200080710548FFF715FB04490020087004494F
:100B3000087010BD14000020F403002012000020F3
:100B4000130000202DE9F05F3F4900200B5CAA2B29
:100B50000AD0401C80B2FF28F8D9FA2872D28D182A
:100B60006878902802D06DE0C2B2F6E7A878DFF886
:100B7000DC904FF0AA0A4FF0010B09F1C8080528D4
:100B800032D1EF782E79B819C82834D84FF4807153
:100B90004046FFF7DEFA88F800A0062188F801B089
:100BA00088F8021088F803600024494606E03819E6
:100BB0000A5C08EB0400641C0271A4B2B442F6D3D0
:100BC000201DC1B22148C83002F0F3F908EB04013E
:100BD000020A0A7148711D49A41DA2B24FF47A732A
:100BE000C8311B4801F0F2FCA87807282AD1EE781A
:100BF0002D79102E02D90120BDE8F09F134809F885
:100C000006504FF48071C830FFF7A3FA88F800A0AF
:100C100088F801B0082088F802000C4888F80360C2
:100C2000444688F804500521C83002F0C2F9010A90
:100C300061710649A0714FF47A730722C8310448E4
:100C400001F0C4FC0020D7E7F4020020F4040020E7
:100C50002801002030B5114A0020115C422903D13F
:100C6000111849784D2905D0401CC0B2C828F4D3CA
:100C7000002030BD11188B78002BF9D1C9781C29C0
:100C8000F6D1074B002144185D181444491C2479FF
:100C9000C9B285F820401829F5D3E9E7F40100200E
:100CA000F40400200EB56946009001200190072051
:100CB0000290074800F026F8054800F0FDF90A21E7
:100CC000034800F05BF9024800F09AF880B20EBDCC
:100CD0005C0000202DE9F04100250E4607462C4619
:100CE00008E03846FFF7DEFF0544052000F0B4FABF
:100CF000641CE4B2B442F4D3B5FBF6F080B2BDE8B4
:100D0000F0810000F8B50024009490F824202546D6
:100D1000012A12D0012280F824204A681F23072AC2
:100D20000DD20668776B521E02EB820293409F43FE
:100D30000B6893401F43776319E00220F8BD0668F3
:100D40000D2A0AD2376BD21F02EB820293409F43D7
:100D50000B6893401F43376309E0F76A0D3A02EBD3
:100D6000820293409F430B6893401F43F7620A68D7
:100D7000072306680A2A0AD3F7680A3A02EB4202F6
:100D800093409F438B6893401F43F76008E03769A7
:100D900002EB420293409F438B6893401F433761AD
:100DA0000A68102A01D0112A20D1124B02689A42F7
:100DB00017D193681B0219D4936843F4000393601E
:100DC0000968102912D10C490C4A0968B1FBF2F1EB
:100DD00001EB8101490000E0491E00910029FBD18F
:100DE00004E0816A41F020018162012480F82450EE
:100DF0002046F8BD002401402400002040420F009E
:100E00000068C06C704700002DE9F0414FF000070A
:100E100004003D467ED0A06A002628B9E66284F828
:100E20002460204600F07EF82046FFF779FCA16A96
:100E3000C90600D420B1A06A40F01000A06269E0A9
:100E4000A16A21F4885141F00201A1626268E1695E
:100E5000237B0A4347EA43010A43A1684FF48077A2
:100E6000B94209D0012907D05FF0000194F814C0FD
:100E7000BCF1010F02D00AE03946F7E7F3B1A36AEB
:100E800043F02003A362E36A43F00103E3622368B3
:100E9000D3F804C02CF4694C4CEA010CC3F804C02C
:100EA00021688B68DFF870C003EA0C0313438B6082
:100EB000A168B9420BD0012909D00CE0DFF85CC071
:100EC000A3690CEB43330B4343F40061DFE7218A52
:100ED0000D05A5F580152168CB6A23F470032B431B
:100EE000CB62216889680E4B1940914208D1E662B5
:100EF000A16A21F0020141F00101A162BDE8F08187
:100F0000A06A20F0020040F01000A062E06A40F009
:100F10000100E0620120F1E7FDF7E1FF00E0FFFFE3
:100F2000FE0E1FFF00B585B00021009101910291D6
:100F3000039100680E49884218D10E48816941F436
:100F400000718161816901F400710491816941F04E
:100F5000040181618069694600F004000490012069
:100F6000009003200190044800F096F905B000BD00
:100F70000024014000100240000801402DE9F84320
:100F800000270D460446009700F07CFA8046206852
:100F90008168C90508D5A06A40F02000A06284F8E5
:100FA00024700120BDE8F8834168C90503D4C06AF4
:100FB00010F4700F2AD0022000F036FB3B4909687C
:100FC000B1FBF0F62068036939490B424FEA610131
:100FD0004FEAA1121FD1C3684FEA611C13EA0C0F3C
:100FE00019D103690B4225D1C068104222D11420C7
:100FF00023E0681C0AD02DB100F044FAA0EB0800F1
:10100000A84203D920680068800725D520680068B9
:101010008007EED52DE003690B4202D1C168114271
:1010200006D0026923490A4206D1C068084203D1AA
:10103000542002E0292000E0FC204643009816E0FE
:10104000681C11D02DB100F01DFAA0EB0800A842D9
:101050000AD90098B04207D2A06A40F00400A0620A
:1010600084F8247003209DE70098401C0090B04253
:10107000E6D321686FF012000860A06A40F40070A7
:10108000A06220688068C0F3424007280CD1207B12
:1010900050B9A06A20F48070A062A06AC00403D492
:1010A000A06A40F00100A06200207BE7240000203D
:1010B000244992244992240070B5044690F82400F3
:1010C00001280DD0012084F824002046FFF754FBAE
:1010D00002004FF0000005D084F82400104670BDD7
:1010E000022070BDA16A40F20123994341F480714E
:1010F000A1621F4D23681F49AB4218D10E6816F438
:10110000702F14D0A66A46F48016A6620E68760583
:1011100005D5A66A26F4005646F48056A662A66A4D
:10112000F6040AD5E66A26F00606E66206E0A66A36
:1011300026F48016A6625E68E9E7E06284F824007F
:101140006FF00200186020688368C3F34243072BE6
:1011500005D1A84208D1096811F4702F04D0816824
:1011600041F480118160B9E7816841F4A001F9E799
:10117000002801400424014010B590F821100022FD
:10118000022905D00421816380F82020012010BDB0
:1011900001680B6823F00E030B6001680B6823F0F5
:1011A00001030B6090F84030C46B012101FA03F396
:1011B000636080F8211080F82020104610BD0000E8
:1011C00010B590F821100024022903D00421816376
:1011D00001243DE001680A6822F00E020A600168FD
:1011E0000A6822F001020A601A4A0168914201D19C
:1011F000012121E0174A1432914201D110211BE054
:10120000144A2832914201D1891515E0114A3C3225
:10121000914201D189140FE00E4A5032914202D11D
:101220004FF4803108E00B4A6432914202D14FF40E
:10123000801101E04FF08071064A083A51600121A7
:1012400080F82110002180F82010416B01B18847FF
:10125000204610BD0800024070B5044600F012F9A7
:101260000546601C02D004480078044400F00AF9E6
:10127000401BA042FAD370BD180000207047000048
:10128000044910B50A68024202D00860FFF7F6FF71
:1012900010BD0000140401402DE9F84FDFF8B891AB
:1012A000002409F1040A0AF1040B23460F270BF16D
:1012B000040EC9E00125A5402A40AA427DD1674E0F
:1012C000D1F804C0ACEB0608B44532D014DCBCF154
:1012D000030F3AD009DCBCF1000F2AD0BCF1010F9A
:1012E0001CD0BCF1020F31D11DE0BCF1110F17D0A1
:1012F000BCF1120F2AD119E0B8F5881F19D006DC0D
:10130000B8F5803F15D0B8F5801F1FD111E0B8F5B2
:10131000001F0ED0B8F5041F18D10AE0CB6815E005
:10132000CB681B1D12E0CB6808330FE0CB680C3391
:101330000CE08B682BB1012B4FF0080303D0456103
:1013400004E0042302E0056100E00023FF2A01D845
:10135000064601E000F104064FEA840501D9A5F133
:101360002005D6F8008007FA05FC28EA0C0803FAE5
:1013700005F548EA0508C6F800804D68ED0062D51D
:10138000374DAE6946F00106AE61AD6924F0030643
:1013900005F001050095334D06EB050CDCF808500F
:1013A000A607360F07FA06F825EA0805DFF8B88021
:1013B000404503D14FF0000817E044E0DFF8AC806F
:1013C000404502D14FF001080FE0DFF8A48040450E
:1013D00002D14FF0020808E0DFF89880404502D1C2
:1013E0004FF0030801E04FF0040808FA06F848EA55
:1013F0000508CCF808804D68D9F80060ED034D462B
:1014000001D5164300E096432E604D68DAF800607F
:10141000AD03554601D5164300E096432E604D6856
:10142000DBF80060ED025D4601D5164300E096430F
:101430002E604D68DEF80060AD02754601D516439A
:1014400000E096432E60641C0D682A46E5407FF458
:1014500031AFBDE8F88F000000040140000011101A
:10146000001002400000014000080140000C014053
:1014700000100140001401400AB1016170470904E5
:10148000FBE700000148806870470000180000205A
:1014900070B5040011D021684CF6CC40086021687A
:1014A00045F255500860D4E9000141602168A06808
:1014B0008860FFF7E7FF05460DE0012070BD00BF23
:1014C000FFF7E0FF401B272805D92068C068800788
:1014D00001D0032070BD2068C0688007F0D121686A
:1014E0004AF6AA200860002070BD00684AF6AA21CA
:1014F00001600020704700000248816802781144B2
:101500008160704718000020074810B5016841F05D
:1015100010010160032000F075F8002000F006F8CB
:1015200000F024F8002010BD0020024070B50D4DE1
:1015300004464FF47A712878B1FBF0F00A49096843
:10154000B1FBF0F000F0DAFB48B9102C07D2002212
:101550002146501E00F036F800206C6070BD01205E
:1015600070BD000018000020240000200C4808B5C1
:10157000816941F001018161816901F001010091FE
:10158000C16941F08051C161C06900F08050009094
:101590000448416821F0E06141F00071416008BDFC
:1015A0000010024000000140002809DB00F01F028B
:1015B000012191404009800000F1E020C0F80011B5
:1015C00070470000F0B40E4B1B680C46C3F30223B7
:1015D000C3F10705042D00D90425191D072901D2DF
:1015E000002300E0DB1E012606FA05F1491E21401A
:1015F00099409E40761E16403143F0BC01F09ABCE3
:101600000CED00E0064900F0070208684FF6FF0302
:10161000184040EA0220034A104308607047000067
:101620000CED00E00000FA0510B529A401461DCC20
:1016300086B08DE81D002AA02A4C00680490002086
:10164000012923D002293AD010291DD161682268CE
:10165000D20119D5C1F38342C9031DF8020009D58F
:10166000616804AAC1F34041515C1F4AB2FBF1F129
:10167000484301E01D4948436168490204D44000E1
:101680005FF00301B0FBF1F006B010BD226AC2F3B7
:101690000121012903D1920701D5C803F4E70229EA
:1016A00005D1626A920702D549F64040ECE703296A
:1016B000EAD121688903E7D54FF22440E4E700F03E
:1016C0003BF96168C1F38131491C4900DAE7000048
:1016D00002030405060708090A0B0C0D0E0F101073
:1016E000010200000010024000127A0000093D00D3
:1016F0002DE9F84305460078354CC00754D0E06921
:101700000026C00008D4E06940F08050E061E06944
:10171000012600F0805000902E480168C90512D4BF
:101720000168804641F480710160FFF7ABFE074617
:1017300005E000BFFFF7A6FEC01B642823D8D8F839
:101740000000C005F6D5206A10F4407021D0A988A9
:1017500001F4407181421CD0206A1F49012220F40B
:1017600040700A6000220A602062C00711D0FFF7B3
:1017700089FE074641F2883808E000BFFFF782FE85
:10178000C11B414502D90320BDE8F883206A8007C8
:10179000F4D5206A696820F44070084320621EB1C5
:1017A000E06920F08050E0612878800705D5606806
:1017B000A96820F44040084360602878C00605D539
:1017C0006068E96820F48000084360600020DBE77F
:1017D0000010024000700040400442427047000088
:1017E0002DE9F0470F46050061D0434E306800F008
:1017F0000700B84209D2306820F007003843306053
:10180000306800F00700B84251D128683B4C81078E
:1018100012D5400703D5606840F4E0606060287826
:10182000000703D5606840F4605060606068A96894
:1018300020F0F000084360602878C00728D068686E
:10184000012810D02168022810D0890700292EDA3B
:10185000616821F0030101436160FFF713FE8046D8
:1018600041F288390DE021688903EFE78901EDE74E
:10187000FFF708FEA0EB0801494502D90320BDE8A7
:10188000F0876068696800F00C00B0EB810FEFD161
:10189000306800F00700B8420BD9306820F007002C
:1018A00038433060306800F00700B84201D00120B2
:1018B000E5E72878400705D56068E96820F4E0602E
:1018C000084360602878000706D56068296920F41D
:1018D000605040EAC100606000F03EF86168084A6C
:1018E000C1F30311515CC84006490860064800680E
:1018F000FFF71CFE0020C2E700200240001002405B
:1019000008310008240000201C00002001490120AB
:10191000C8647047000042420448054900684968AD
:10192000044AC1F30221515CC840704724000020E2
:101930000010024018310008044805490068496851
:10194000044AC1F3C221515CC84070472400002002
:10195000001002401831000812A185B00FC98DE8AF
:101960000F0014A0144A006804905168134801F055
:101970000C03042B10D0082B0ED1C1F38343C903F1
:101980001DF803000AD5516804AAC1F34041515C17
:101990000A4A5043B0FBF1F005B07047084948438C
:1019A000FAE7000002030405060708090A0B0C0DFC
:1019B0000E0F1010010200000010024000127A0009
:1019C00000093D0010B5044CA068000603D5FFF7E0
:1019D00005FF8020A07210BD001002402DE9F84FD5
:1019E000040070D02078C04DC00749D06868C0F3AB
:1019F0008100012807D06868C0F38100022809D15E
:101A00006868C00306D52868800339D56068002857
:101A1000E7D035E06068B0F5803F0BD010B1B0F58D
:101A2000A02F11D0286820F480302860286820F486
:101A3000802002E0286840F480302860606890B11F
:101A4000FFF720FD06460AE0286840F48020286061
:101A5000F0E700BFFFF716FD801B642873D82868E5
:101A60008003F7D50CE0FFF70DFD064605E000BF4B
:101A7000FFF708FD801B6428F0D828688003F7D49E
:101A800020789A4E80074FF001094FF0000839D5B1
:101A9000686810F00C0F07D06868C0F38100022856
:101AA00009D16868C00306D42868800714D5206966
:101AB000012808D110E02069B0B1C6F80090FFF706
:101AC000E1FC074605E00AE1FFF7DCFCC01B022849
:101AD000C4D828688007F7D52868616920F0F80025
:101AE00040EAC10028600DE0C6F80080FFF7CAFC9C
:101AF000074604E0FFF7C6FCC01B022823D828686D
:101B00008007F7D4207800072CD57948A169D9B18E
:101B1000C0F80090FFF7B6FC074604E0FFF7B2FC00
:101B2000C01B02280FD8686A8007F7D571484FF4A8
:101B3000FA510068B0FBF1F0009000BF0098411E20
:101B40000091FAD20EE080E0C0F80080FFF79AFC26
:101B5000074604E0FFF796FCC01B022875D8686AA8
:101B60008007F7D42078400760D5E8690027C000D7
:101B700008D4E86940F08050E861E869012700F086
:101B8000805000905C480168C90513D40168834601
:101B900041F480710160FFF775FC824606E000BFEA
:101BA000FFF770FCA0EB0A0064284ED8DBF80000B9
:101BB000C005F5D5E06801280AD008B1052813D082
:101BC000286A20F001002862286A20F0040002E060
:101BD000286A40F001002862E06841F2883B98B131
:101BE000FFF750FC82460BE0286A40F004002862B0
:101BF000EEE700BFFFF746FCA0EB0A0159455AD8B3
:101C0000286A8007F6D50CE0FFF73CFC824605E029
:101C1000FFF738FCA0EB0A0159454CD8286A800729
:101C2000F6D41FB1E86920F08050E861E06988B31C
:101C30006968C1F38101022944D00228C6F8608096
:101C400004D0FFF71FFC044638E034E0FFF71AFC2D
:101C5000074604E0FFF716FCC01B02282BD82868B3
:101C60008001F7D4206AB0F5803F05D16868A1688B
:101C700020F4003008436860D4E90801084369682B
:101C800021F4741108436860C6F86090FFF7FAFB0E
:101C9000044606E025E000BFFFF7F4FB001B022826
:101CA00009D828688001F7D51BE000BFFFF7EAFBE1
:101CB000001B022802D90320BDE8F88F28688001A4
:101CC000F4D40EE00128F7D06868226A00F480316D
:101CD000914204D1616A00F47010884201D0012061
:101CE000EAE70020E8E7000000100240000042425E
:101CF00080044242240000200070004010B5401EC5
:101D0000B0F1807F01D3012010BD4FF0E02460616D
:101D10000F21601701F00EF90020A061072020615B
:101D2000002010BD7047704770B590F83C20012A24
:101D300026D0012480F83C40022280F83D20036830
:101D40005A689D6822F070060A6832435A600D4B4B
:101D500002689A4208D0B2F1804F05D00A4B9A42ED
:101D600002D00A4B9A4204D1496825F080031943F6
:101D7000916080F83D40002180F83C10084670BD1D
:101D8000022070BD002C014000040040000800400B
:101D900010B5040003D094F83D0010B107E0012015
:101DA00010BD002084F83C00204600F01FF80220FF
:101DB00084F83D00211D206800F0E0FE012084F839
:101DC000460084F83E0084F83F0084F8400084F820
:101DD000410084F8420084F8430084F8440084F809
:101DE000450084F83D00002010BD000008B50168E2
:101DF0001448B1F1804F14D0134A914220D1C169E7
:101E000041F00201C161C069002200F002000090AF
:101E100011461D20FFF7D6FB1D20BDE80840FFF747
:101E2000C3BBC16941F00101C161C069002200F07A
:101E30000100009011461C20FFF7C4FB1C20ECE7BA
:101E400008BD0000001002400004004090F83D1062
:101E5000012901D001207047022180F83D1001685E
:101E6000CA6842F00102CA6000680B49884208D083
:101E7000B0F1804F05D00949884202D00849884214
:101E800004D1816801F00701062903D0016841F0FF
:101E90000101016000207047002C01400004004057
:101EA0000008004070B5044690F83C00012817D0A7
:101EB000012584F83C50022084F83D0020688268A7
:101EC00022F0770222F47F4282600868502830D0E6
:101ED0000DDC20284DD005DC98B310283BD148E01C
:101EE000022070BD302844D0402834D139E0602829
:101EF00028D0702806D0B0F5805F2CD0B0F5005FF8
:101F000029D10AE0CB68D1E90121206800F06CFEFC
:101F10002068816841F0770109E0CB68D1E90121AF
:101F2000206800F061FE2068816841F48041816092
:101F300011E0CA684968206800F068FE50212068F6
:101F400007E016E0CA684968206800F070FE60216A
:101F5000206800F053FE84F83D50002084F83C00D7
:101F600070BDCA684968206800F050FE40212068B2
:101F7000EFE7226801461046EBE7704770B504466C
:101F8000006801694FF00005C943890715D4C1688D
:101F9000C943890711D4E91E016101202077206817
:101FA00080698007204602D0FFF7E7FF04E000F0D9
:101FB00098F8204600F096F8257720680169C94313
:101FC000490717D4C168C943490713D46FF0040106
:101FD0000161022020772068806910F4407F20464C
:101FE00002D0FFF7CAFF04E000F07BF8204600F0C3
:101FF00079F8257720680169C943090716D4C168B3
:10200000C943090712D46FF0080101610420207749
:102010002068C0698007204602D0FFF7AEFF04E0C9
:1020200000F05FF8204600F05DF825772068016930
:10203000C943C90617D4C168C943C90613D46FF090
:1020400010010161082020772068C06910F4407FEA
:10205000204602D0FFF791FF04E000F042F820464E
:1020600000F040F8257720680169C943C90708D105
:10207000C168C943C90704D1891E0161204600F027
:1020800033F820680169C943090609D4C168C94306
:10209000090605D46FF0800101612046FFF742FE7A
:1020A00020680169C943490609D4C168C943490682
:1020B00005D46FF040010161204600F04FF8206820
:1020C0000169C94389060BD4C168C943890607D48D
:1020D0006FF0200101612046BDE87040FFF723BE8C
:1020E00070BD70477047000030B40168B1F1804F97
:1020F00019D1164932234A68521CB2FBF3F403FB90
:10210000142401234A6004B90B704FF47A74B2FBB3
:10211000F4F504FB152505B94B70B2FBF4F504FB8F
:10212000152202B98B700068094988420CD1094810
:10213000D0F8941131B10021C0F8941130BC064898
:10214000FFF7D3B90121F7E730BC70470400002046
:1021500000040040008021428C000020704770473E
:1021600070470000F8B5026804461068D1685369EA
:1021700010F00F0F4FF0000553D003F0010601F4EB
:10218000907737435FD0C20705D0CA0503D5226CCC
:1021900042F001022264420705D5DA0703D0226C1F
:1021A00042F002022264820705D5DA0703D0226CCE
:1021B00042F004022264020707D501F020023243F4
:1021C00003D0226C42F008022264226C002A34D030
:1021D000800604D5880602D5204600F05AFD206806
:1021E0004069216CC0F38010090700D430B3204649
:1021F00000F037FD2068416949061BD5416921F08F
:1022000040014161A06BA8B158494163A06BFEF742
:10221000D7FF002811D0A06B416B01B0BDE8F040A2
:10222000084783060FD58B060DD52046BDE8F8403C
:1022300000F02FBD2046FFF793FFF8BD2046FFF7C3
:102240008FFF2564F8BD266B2023012E52D1C606D0
:1022500050D5CE064ED510685068009050694006A3
:102260002AD5A16B086840680004000CEAD0A68D4E
:102270008642E7D9E0858869202818D0D06820F404
:102280008070D0602068416921F0010141612068BF
:10229000416921F04001416184F83E3025632068A6
:1022A000C16821F01001C160A06BFEF765FFA08D31
:1022B000E18D401A81B219E0A08DE18D401A81B202
:1022C000E08D0028BED00029BCD0D06820F49070EA
:1022D000D0602068426922F00102426184F83E30F9
:1022E00025632068C26822F01002C2602046FFF712
:1022F00036FFF8BD05062BD50D0629D594F83D000F
:102300002128F6D1A068B0F5805F01D12069B0B175
:10231000206A411C2162216800784860E08C401EE0
:102320000004000CE084E4D12068C16821F0800141
:10233000C1602068C16841F04001C160F8BD206AF9
:102340000088C0F308005060206A801C2062E5E726
:102350004006F3D54806F1D5D168204621F040016A
:10236000D16084F83D3000F08AF9F8BD532C0008A4
:1023700070B5040004D094F83D00002510B106E0CB
:10238000012070BD84F83C50204600F023F8242042
:1023900084F83D002068C16821F40051C1602046E6
:1023A00000F0D2FC2068016921F4904101612068AD
:1023B000416921F02A0141612068C16841F400515E
:1023C000C1602564202084F83D0084F83E00002090
:1023D00070BD0000F0B585B0002400940194029413
:1023E00003940368424F022042490322424D4602B1
:1023F000BB4225D18B6943F480438B618B6903F425
:10240000804304938B6943F004038B6189690392D1
:1024100001F0040104910102CDE90010694628464B
:10242000FEF73AFFCDE90064694628460294FEF7BC
:1024300033FF002211462520FFF7C4F8252028E0AD
:102440002E4FBB4229D1CB6943F40033CB61CB691A
:1024500003F4003304938B6943F004038B618969AF
:10246000039201F0040104910421CDE900106946B2
:102470002846FEF711FF0820CDE9000469462846EA
:102480000294FEF709FF002211462620FFF79AF872
:102490002620FFF789F805B0F0BD194DAB42FAD1FF
:1024A000CB6943F48023CB61CB6903F4802304938D
:1024B0008B6943F008038B618969124D01F00801B3
:1024C000CDE90321CDE9006069462846FEF7E4FE28
:1024D000E814CDE90004694628460294FEF7DCFEC4
:1024E000002211462720FFF76DF82720D1E70000D2
:1024F0000038014000100240000801400044004044
:1025000000480040000C01402DE9F84F044690F8C7
:102510003E009A4616460D46202853D1FDB1F6B12D
:1025200094F83C0001284DD0012084F83C0000279D
:102530002764222084F83E002763FEF7A3FFA685C8
:102540008146E685A0684FF48058404501D1206956
:1025500040B12E465FF0000584F83C7027E0012072
:10256000BDE8F88F0026F7E74B46002220212046E1
:10257000CDF800A000F044FC08B10320F0E726B13C
:10258000A06840451BD038B108E020684068C0F31F
:10259000080025F8020B07E0206980B12068406838
:1025A00000F07F0006F8010BE08D401EE085E08D15
:1025B0000028D9D1202084F83E000020D0E72068F0
:1025C0004068EFE70220CBE7704700002DE9F843B1
:1025D000044690F83D001F4616460D4620284CD173
:1025E000C5B1BEB194F83C00012846D0012084F862
:1025F0003C004FF00008C4F84080212084F83D00E2
:10260000FEF740FFA6848146E684A068B0F5805FAF
:1026100003D004E00120BDE8F883206928B12E46EC
:102620005FF0000584F83C800EE00026FAE7802188
:10263000204600F0E5FBA0B9AEB116F8010B216809
:102640004860E08C401EE084E08C4B464FF0000276
:1026500000970028EBD14FF04001204600F0D0FB5E
:1026600030B10320D7E735F8020BC0F30800E6E7E6
:10267000202084F83D000020CDE70220CBE7704702
:10268000FEE7000070B50A4D0024287810B1FEF76F
:1026900097F92C70074D287810B1FEF78BF92C7044
:1026A000054D2878002802D0FEF7BAF92C7070BDCD
:1026B0000400002005000020060000200E4810B590
:1026C000816986B041F00801816180690B4C00F09E
:1026D00008000490C0200090012001900290032087
:1026E00003900122C0212046FEF7C6FE694620461F
:1026F000FEF7D2FD06B010BD00100240000C0140F4
:102700003EB5002410480094019402940D49846061
:10271000016004730475012505614FF46021446074
:10272000C161FEF771FB08B1FEF742F9CDE9004542
:10273000694605480294FEF7E5FA002801D0FEF745
:1027400037F93EBD002401405C0000202DE9F04334
:1027500085B0002430480094019402940394816968
:1027600041F020018161816901F0200104918169BA
:1027700041F004018161816901F0040104918169E2
:1027800041F0080181618069DFF8908000F0080065
:102790000490012220214046FEF76EFEDFF8809073
:1027A000002220214846FEF767FE0225CDE90054AD
:1027B000694640460294FEF76FFD202601276946D0
:1027C0004046CDE90245CDE90067FEF765FD4020B2
:1027D00000901448CDE9010469464046FEF75CFDCF
:1027E00069464846CDE90245CDE90067FEF754FD4C
:1027F000C020CDE90004694648460294FEF74CFD2E
:10280000002211461720FEF7DDFE1720FEF7CCFE52
:1028100005B0BDE8F0830000001002400008014050
:10282000000C014000001110094810B50749016073
:102830000421416040F6FF718160FEF729FE002807
:1028400003D0BDE81040FEF7B3B810BD0030004023
:102850008C00002010B586B0002417480094019425
:102860000294039404944FF0804105940160632125
:10287000C0E9011440F21F31C0E9031480218161D5
:10288000FFF786FA08B1FEF793F84FF480500090F6
:1028900069460948FFF706FB08B1FEF789F804947A
:1028A00004A905480594FFF73FFA002801D0FEF778
:1028B0007FF806B010BD00009800002010B586B06B
:1028C0000024184800940194029403940494144939
:1028D0000594016040F2E731C0E9011441F63F710F
:1028E000C0E9031480218161FFF752FA08B1FEF7B5
:1028F0005FF84FF48050009069460A48FFF7D2FA1B
:1029000008B1FEF755F8049404A906480594FFF7AA
:102910000BFA002801D0FEF74BF806B010BD0000FE
:1029200000040040E00000200C4810B50A49016096
:102930004FF416514160002181600C22C160C0E952
:1029400004128161C161FFF713FD002803D0BDE8C7
:102950001040FEF72DB810BD0038014028010020BE
:102960000C4810B50A4901604FF41651416000212E
:1029700081600C22C160C0E904128161C161FFF76E
:10298000F7FC002803D0BDE81040FEF711B810BDD9
:10299000004400406C0100200C4810B50A49016059
:1029A0004FF496514160002181600C22C160C0E962
:1029B00004128161C161FFF7DBFC002803D0BDE890
:1029C0001040FDF7F5BF10BD00480040B0010020E9
:1029D000FEE7FEF7F7BF00002DE9F041124C0020A2
:1029E00004EB8001496844F82010401C0B28F7DBF9
:1029F0000E4F00263D68E56254F826002946FDF793
:102A0000BDFD01D254F82650761C0C2EF4DB08498B
:102A100028463D60FDF7A8FBFDF76DFD0549020A5C
:102A20000A744874BDE8F0812C00002000000020EA
:102A30000000C842F4040020704700002DE9F04176
:102A40000024234D04E0641CA4B20A20FEF704FC19
:102A5000287808B9322CF6D3322C11D01D4C2078AE
:102A6000401C20700120FEF7F7FB20780A28F6D3DF
:102A70001A4E002004464FF48071174A377812E04E
:102A80000020BDE8F081135C012B0AD1131893F8E4
:102A900001C0BCF1030F04D193F802C0BCF1020FD6
:102AA00009D0401C80B2B842EDD30B48FDF751FB72
:102AB0002C703470E4E71044C278094802761A7921
:102AC00042760548FDF745FB2C7034700120D8E7AD
:102AD0001200002014000020F40300201300002046
:102AE000F404002010B5002306E000BF30F8024BCC
:102AF00021F813405B1C9BB29342F7D310BD704783
:102B0000FEF7FABC30B593B028216846FDF721FBEB
:102B100014210AA8FDF71DFB00240F940920009042
:102B200010944FF48030019011940125CDE90654A2
:102B300012946846FEF752FF0F200A90CDE90B541D
:102B40000D9400210AA80E94FEF74AFE02200F9071
:102B500011940FA8FEF7CCFDFEF7D8FE13B030BDE0
:102B6000704700000148FFF709BA000098000020F4
:102B70000148FFF703BA0000E0000020F0B502684A
:102B8000164B174C174D4FF08047984205D0B8426E
:102B900003D0A04201D0A84203D122F070064A68B7
:102BA0003243984205D0B84203D0A04201D0A84297
:102BB00003D122F44074CA6822434C6922F0800297
:102BC000224302608A68C2620A688262984201D126
:102BD0000969016301214161F0BD0000002C014041
:102BE000000400400008004010B5846842EA032257
:102BF00024F47F440A432243826010BD826822F09D
:102C000070020A4342F007018160704710B5036A01
:102C1000046A24F001040462846924F0F00444EAA4
:102C2000021423F00A020A438461026210BD10B547
:102C3000036A23F0100303628369046A23F4704378
:102C400043EA023224F0A00343EA011182610162E7
:102C500010BD10B5406A0021C185C184FFF780FA1C
:102C600010BD0168CA6822F49072CA6001684A699E
:102C700022F001024A61016B012904D10168CA688E
:102C800022F01002CA60202180F83E10002101636A
:102C9000704708B590F83E10222901D0022008BDE7
:102CA00082684FF480539A4201D1016921B1816A4F
:102CB0009A421BD04AB10AE00268816A5268C2F3A4
:102CC00008020A80816A891C08E0026972B1026800
:102CD000526802F07F020A70816A491C8162C18DCC
:102CE000491E0904090CC18503D019E00268526825
:102CF000F1E70168CA6822F02002CA600168CA6868
:102D000022F48072CA6001684A6922F001024A61B5
:102D1000202180F83E10016B012903D0FFF754FCFD
:102D2000002008BD002101630168CA6822F010027A
:102D3000CA6001680A68D20602D50A68496800912B
:102D4000818DFFF70CFAEBE770B504460068016966
:102D5000E26821F44051114301612169A0680843F0
:102D6000616908432168CA6841F20C639A430243CF
:102D7000CA6020684169A26921F440711143416130
:102D80001E492068884202D1FEF7D6FD01E0FEF719
:102D9000C3FD00EBC00101EB0012606864218000FC
:102DA000B2FBF0F3B3FBF1F36FF018067343B2FB21
:102DB000F0F5B2FBF0F605EB8305322303EB0515C6
:102DC000B5FBF1F5B6FBF1F605F0F00505EB0615E0
:102DD000B2FBF0F6B2FBF0F0B0FBF1F06FF01802CE
:102DE000504306EB800003EB0010B0FBF1F02168CC
:102DF00000F00F002844886070BD000000380140DA
:102E00002DE9F041984617460E460446069D1DE002
:102E1000681C1BD02DB1FEF735FBA0EB0800A842C3
:102E200014D92068C16821F4D071C160206841695B
:102E300021F001014161202084F83D0084F83E002A
:102E4000002084F83C000320BDE8F0812068006881
:102E500036EA000004D00020B842D9D00020F3E7C1
:102E60000120F9E709480068016889060AD5426827
:102E70000848074B01795A54491C01710121C1705E
:102E8000002141710148FFF76DB9000028010020C1
:102E9000F40200200C0000200D4810B50068006806
:102EA000800610D50C4C0B484FF47A7361780122E0
:102EB00001440748FFF728FB6078401C6070012040
:102EC00020700020A070BDE810400148FFF74AB90B
:102ED0006C010020F40100200C0000200D4810B50A
:102EE00000680068800610D50C4C0B484FF47A73CC
:102EF000E179012201440748FFF706FBE079401C15
:102F0000E0710120A07100202072BDE8104001484E
:102F1000FFF728B9B0010020F40300200C000020C6
:102F2000FEE70000014A024900F023B80130000822
:102F3000280000200907090E002804DB00F1E0202A
:102F400080F80014704700F00F0000F1E02080F8D6
:102F5000141D704702E008C8121F08C1002AFAD1E8
:102F600070477047002001E001C1121F002AFBD109
:102F700070472DE9F04116460F460446002503E050
:102F80003946B047641C6D1C20780028F8D12846CB
:102F9000BDE8F081484000214AF2010310F0010F22
:102FA000C0F34E0000D05840491CC9B20829F5D3DF
:102FB000704770B50E4605464FF6FF71002405E0D8
:102FC0002878FFF7E7FF641C01466D1CB442F7D375
:102FD000C8B2C1F3072141EA002070BD00B5024626
:102FE0004FF47A7302E0184600F003F8521EFAD24A
:102FF00000BDC000800800BF401EFCD2704700002A
:1030000038B504468DF800000223012269460248C3
:10301000FFF7DCFA204638BD28010020FEF774FADD
:10302000FFF770FDFFF792FBFFF76AFBFFF7FCFB72
:10303000FFF77AFCFFF794FCFFF7AEFCFFF70AFC02
:10304000FFF73CFC22480068C16841F02001C160E4
:1030500020480068C16841F02001C1601E48006836
:10306000C16841F02001C1601C48FEF7EFFE1C481A
:10307000FEF7ECFEFDF7C0FBFFF720FB194C05E067
:1030800019A0FFF74FFFC820FEF7E6F8FDF7F2FBA7
:103090000028F5D1184D194E194FDFF86880814688
:1030A0002878012801D1FDF7E3FC3078012801D10F
:1030B000FDF70AFD3878012801D1FDF725FDFFF75E
:1030C000E1FA21684145EBD9C4F80090E8E7000037
:1030D000280100206C010020B00100209800002091
:1030E000E00000200800002044485431312045729F
:1030F000726F720D0A0000000F0000200C0000200B
:103100001200002000D68300000000000000000034
:10311000010203040607080900000000010203047D
:1031200040310008000000202C000000542F00084F
:103130006C3100082C000020940A0000642F000865
:10314000000000000000000000000000000000007F
:10315000000000000000000001000000100000005E
:0C316000000000000024F400000000004B
:04000005080000ED02
:00000001FF
